:07009700D2AFD2A8D28822EB
:040088007F807E1ADD
:0B008C00EF1FAC0670011E4C70F62246
:05009E0012009780FE36
:03000300020016E2
:10001600C0E0C0D075D000C004C006C0077FD07E47
:100026000712008C20B22CD2A7C2A2120088D2A23C
:10003600C2A3120088D2A3C2A4120088D2A4C2A569
:10004600120088D2A5C2A6120088D2A6C2A71200A4
:0E0056008880D4D007D006D004D0D0D0E032BD
:0300130002006484
:10006400C0E0C0D075D000C004C006C0077FD07EF9
:100074000712008C20B302D2A2D007D006D004D03D
:04008400D0D0E032C6
:03000000020006F5
:0C000600787FE4F6D8FD75810702009EAB
:00000001FF
