:10000300750800750901750A00750B01750C0075FB
:100013000D01E508450924FF92A2E50A450B24FFDB
:1000230092A3D2A47580FEAF0DAE0C120068050D2D
:10003300E50D7002050CD394F4E50C6480948140C3
:10004300D1E50B150B7002150AC3E50A6480948091
:1000530050BAE509150970021508C3E508648094D0
:050063008050A3809B0A
:10006800D3EF9400EE64809480401F750E00750FE6
:1000780064D3EF9400EE648094804007EF1F70F122
:0A0088001E80EEEF1F70D91E80D617
:01009200224B
:0300000002009368
:0C009300787FE4F6D8FD75810F020003B1
:00000001FF
