:1000EB00FF48105510601055206020FF2060204CF9
:1000FB00204020393040303930303030302B302BED
:10010B0030303040204820402039204020482040CB
:08011B0020392030204830009B
:03000300010800F1
:03000B00020135BA
:09013500758CD8758AEF150832AB
:10012300EF75F003A4FFAEF0EF1F70011E144E70C5
:01013300F7D4
:0101340022A8
:03000700DFFE22F7
:10009A00E4FD53890F438901758CD8758AEF75A8D9
:1000AA0082ED9000EB93FE7008FD7FE81200078056
:1000BA00F0BEFF0A0D7F64120007C28C80E3AF0511
:1000CA000DEF9000EB93FCAF050DEF93F508D28C82
:1000DA00E5086009B295AF0412012380F3C28C804F
:0100EA00C055
:0300000002000EED
:0C000E00787FE4F6D8FD758108020055EB
:10001A0002009AE493A3F8E493A34003F68001F262
:10002A0008DFF48029E493A3F85407240CC8C333E7
:10003A00C4540F4420C8834004F456800146F6DFB6
:10004A00E4800B0102040810204080900003E47E43
:10005A00019360BCA3FF543F30E509541FFEE493AB
:10006A00A360010ECF54C025E060A840B8E493A372
:10007A00FAE493A3F8E493A3C8C582C8CAC583CA9D
:10008A00F0A3C8C582C8CAC583CADFE9DEE780BE55
:0100060000F9
:00000001FF
