:10000300750E03750F20E4F508F509E4F50AF50B01
:10001300E4F50CF50DE508450924FF92A2E50A4530
:100023000B24FF92A3E50C450D24FF92A475803F9A
:100033001206F9050DE50D7002050CC39402E50CDB
:100043006480948040CF050BE50B7002050AC394CE
:1000530002E50A6480948040B70509E5097002054A
:1000630008C39402E50864809480409FE50F150F50
:100073007002150ED3E50F9400E50E648094805052
:1000830085750E03750F20E4F508F509E4F50AF507
:100093000BE4F50CF50DE508450924FF92A2E50AEA
:1000A300450B24FF92A3E50C450D24FF92A4758014
:1000B300061206F9050DE50D7002050CC39402E561
:1000C3000C6480948040CF050BE50B7002050AC3D6
:1000D3009402E50A6480948040B70509E50970023B
:1000E3000508C39402E50864809480409FE50F15DA
:1000F3000F7002150ED3E50F9400E50E6480948013
:100103005085750E03750F20E4F508F509E4F50A2B
:10011300F50BE4F50CF50DE508450924FF92A2E57E
:100123000A450B24FF92A3E50C450D24FF92A47509
:10013300805B1206F9050DE50D7002050CC39402F0
:10014300E50C6480948040CF050BE50B7002050A33
:10015300C39402E50A6480948040B70509E50970F9
:10016300020508C39402E50864809480409FE50F6C
:10017300150F7002150ED3E50F9400E50E648094FD
:10018300805085750E03750F20E4F508F509E4F535
:100193000AF50BE4F50CF50DE508450924FF92A2D9
:1001A300E50A450B24FF92A3E50C450D24FF92A419
:1001B30075804F1206F9050DE50D7002050CC39409
:1001C30002E50C6480948040CF050BE50B700205BB
:1001D3000AC39402E50A6480948040B70509E509DF
:1001E30070020508C39402E50864809480409FE58B
:1001F3000F150F7002150ED3E50F9400E50E648002
:1002030094805085750E03750F20E4F508F509E415
:10021300F50AF50BE4F50CF50DE508450924FF9205
:10022300A2E50A450B24FF92A3E50C450D24FF929A
:10023300A47580661206F9050DE50D7002050CC361
:100243009402E50C6480948040CF050BE50B7002AB
:10025300050AC39402E50A6480948040B70509E562
:100263000970020508C39402E50864809480409FE6
:10027300E50F150F7002150ED3E50F9400E50E641C
:100283008094805085750E03750F20E4F508F509F9
:10029300E4F50AF50BE4F50CF50DE508450924FF33
:1002A30092A2E50A450B24FF92A3E50C450D24FF1A
:1002B30092A475806D1206F9050DE50D7002050C0B
:1002C300C39402E50C6480948040CF050BE50B706A
:1002D30002050AC39402E50A6480948040B70509C5
:1002E300E50970020508C39402E508648094804020
:1002F3009FE50F150F7002150ED3E50F9400E50E61
:10030300648094805085750E03750F20E4F508F51D
:1003130009E4F50AF50BE4F50CF50DE508450924A8
:10032300FF92A2E50A450B24FF92A3E50C450D2499
:10033300FF92A475807D1206F9050DE50D70020587
:100343000CC39402E50C6480948040CF050BE50B4D
:100353007002050AC39402E50A6480948040B705DD
:1003630009E50970020508C39402E50864809480D6
:10037300409FE50F150F7002150ED3E50F9400E5AE
:100383000E648094805085750E03750F20E4F50884
:10039300F509E4F50AF50BE4F50CF50DE508450957
:1003A30024FF92A2E50A450B24FF92A3E50C450D19
:1003B30024FF92A47580071206F9050DE50D70025E
:1003C300050CC39402E50C6480948040CF050BE5D3
:1003D3000B7002050AC39402E50A6480948040B757
:1003E3000509E50970020508C39402E508648094D1
:1003F30080409FE50F150F7002150ED3E50F940093
:10040300E50E648094805085750E03750F20E4F526
:1004130008F509E4F50AF50BE4F50CF50DE50845D7
:100423000924FF92A2E50A450B24FF92A3E50C459C
:100433000D24FF92A475807F1206F9050DE50D705A
:1004430002050CC39402E50C6480948040CF050B35
:10045300E50B7002050AC39402E50A6480948040A8
:10046300B70509E50970020508C39402E50864802D
:100473009480409FE50F150F7002150ED3E50F947E
:1004830000E50E648094805085750E03750F20E49B
:10049300F508F509E4F50AF50BE4F50CF50DE508A7
:1004A300450924FF92A2E50A450B24FF92A3E50C1C
:1004B300450D24FF92A475806F1206F9050DE50D15
:1004C3007002050CC39402E50C6480948040CF0550
:1004D3000BE50B7002050AC39402E50A648094805D
:1004E30040B70509E50970020508C39402E50864ED
:1004F300809480409FE50F150F7002150ED3E50F12
:100503009400E50E648094805085750E03750F206A
:10051300E4F508F509E4F50AF50BE4F50CF50DE54A
:1005230008450924FF92A2E50A450B24FF92A3E59F
:100533000C450D24FF92A47580771206F9050DE58D
:100543000D7002050CC39402E50C6480948040CFC7
:10055300050BE50B7002050AC39402E50A64809457
:100563008040B70509E50970020508C39402E50850
:1005730064809480409FE50F150F7002150ED3E53C
:100583000F9400E50E648094805085750E03750FFB
:1005930020E4F508F509E4F50AF50BE4F50CF50D8F
:1005A300E508450924FF92A2E50A450B24FF92A31F
:1005B300E50C450D24FF92A475807C1206F9050D08
:1005C300E50D7002050CC39402E50C648094804031
:1005D300CF050BE50B7002050AC39402E50A64809C
:1005E300948040B70509E50970020508C39402E544
:1005F3000864809480409FE50F150F7002150ED399
:10060300E50F9400E50E648094805085750E0375A4
:100613000F20E4F508F509E4F50AF50BE4F50CF50C
:100623000DE508450924FF92A2E50A450B24FF9234
:10063300A3E50C450D24FF92A47580391206F90534
:100643000DE50D7002050CC39402E50C64809480E3
:1006530040CF050BE50B7002050AC39402E50A645B
:1006630080948040B70509E50970020508C3940228
:10067300E50864809480409FE50F150F7002150E06
:10068300D3E50F9400E50E648094805085750E03C6
:10069300750F20E4F508F509E4F50AF50BE4F50C0C
:1006A300F50DE508450924FF92A2E50A450B24FF51
:1006B30092A3E50C450D24FF92A475805E050DE51C
:1006C3000D7002050C6402450C70D7050BE50B7029
:1006D30002050A6402450A70C40509E509700205AA
:1006E300086402450870B1E50F150F7002150EE599
:0506F3000F450E709E92
:0106F80022DF
:0406F9007F017E00FF
:1006FD00D3EF9400EE64809480401F751000751147
:10070D0064D3EF9400EE648094804007EF1F70F186
:0A071D001E80EEEF1F70D91E80D67B
:0107270022AF
:03000000020728CC
:0C072800787FE4F6D8FD75811102000313
:00000001FF
