:1000B5003F065B4F666D7D077F6F777C395E797193
:10000300E4F508F509750A27750B10D3E50B940081
:10001300E50A648094805047C2A212007DC2A2C246
:10002300A3D2A4120081C2A2D2A312007FC2A2D281
:10003300A3D2A4120081D2A212007DD2A2C2A3D263
:10004300A4120081D2A2D2A312007FD2A2D2A3D241
:10005300A4120081E50B150B70B1150A02000E7F87
:10006300307E751200950509E50970020508D394E1
:090073000FE50864809480408CC4
:01007C002261
:10007D00C2A3C2A474B52509F58274003508F583B1
:08008D00E493F5807F0A7E0078
:10009500D3EF9400EE6480948040147D327C00EDB3
:0F00A5001D70011CED4C70F7EF1F70E41E80E121
:0100B4002229
:030000000200C536
:0C00C500787FE4F6D8FD75810B02000383
:00000001FF
