:1000030075080075090AAE08AF09EE3395E0FDFCEB
:100013007B807A9679987800C31200A1401CC29520
:100023007F017E00120081D2957F017E0012008144
:100033000509E50970D0050880CC7FE87E0312002E
:1000430081AE08AF09EE3395E0FDFC7B007A2D7994
:10005300317801C31200A1401CC2957F027E0012B9
:100063000081D2957F027E001200810509E50970A7
:0E007300D0050880CC7FE87E031200818088D3
:10008100D3EF9400EE6480948040147D6E7C00ED8B
:0F0091001D70011CED4C70F7EF1F70E41E80E135
:0100A000223D
:030000000200B744
:0C00B700787FE4F6D8FD75810902000393
:1000A100EB9FF5F0EA9E42F0E99D42F0EC6480C8D6
:0600B10064809845F02276
:00000001FF
