:07008400C288C2A8C2AF222E
:05008B0012008480FE5C
:03000300020006F2
:10000600C0E0C0F0C083C082C0D075D000C000C0C0
:1000160001C002C003C004C005C006C00720B21557
:100026007FE87E0312005620B20BD2A27F107E27F5
:10003600120056C2A2D007D006D005D004D003D0F5
:1000460002D001D000D0D0D082D083D0F0D0E03220
:10005600D3EF9400EE6480948040167D647C00EDBE
:100066001D70011CBCFFF8BDFFF5EF1F70E21E807E
:01007600DFAA
:010077002266
:0300000002007883
:0C007800787FE4F6D8FD75810702008B4C
:00000001FF
