:1000FB000810000012147814120008187FBFDFEFED
:0E010B00F7FBFDFE0808243E40320478142263
:0B011A00EF1FAC0670011E4C70F622B7
:10008F002DF8E6FF12009F7F647E0012011AE4FF35
:10009F00C2B6C2B5E4FEEFC4131313540124FF928A
:1000AF00B4EF25E0FFD2B60000C2B60EBE08E7D20D
:0500BF00B50000C2B510
:0100C4002219
:1000C50075807FE4FD74182DF8E6F5807410120034
:1000D5008F0DBD08F07F0A7E0012011A75807FE43E
:1000E500FDEDC3940850D974182DF8E6F580740811
:0600F50012008F0D80EBEC
:03000000020003F8
:0C000300787FE4F6D8FD75811F02004AEA
:10000F000200C5E493A3F8E493A34003F68001F242
:10001F0008DFF48029E493A3F85407240CC8C333F2
:10002F00C4540F4420C8834004F456800146F6DFC1
:10003F00E4800B01020408102040809000FBE47E56
:10004F00019360BCA3FF543F30E509541FFEE493B6
:10005F00A360010ECF54C025E060A840B8E493A37D
:10006F00FAE493A3F8E493A3C8C582C8CAC583CAA8
:10007F00F0A3C8C582C8CAC583CADFE9DEE780BE60
:0101190000E5
:00000001FF
