:10005D007FBFDFEFF7FBFDFE0012147814120000D6
:10006D00243E40320478142200E9AAACAAE900002B
:10007D00001C080808081C000000774941221408DC
:08008D000844DF564E554C44B7
:1000BB00E4FDFCC3ED9FEC9E5015E4FBFA0BBB007B
:0F00CB00010AEB64794A70F50DBD00010C80E469
:0100DA002203
:10009500C2B6C2B5E4FEEFC4131313540124FF9294
:1000A500B4EF25E0FFD2B60000C2B60EBE08E7D217
:0500B500B50000C2B51A
:0100BA002223
:10000300E4F509F50AE4F9E4FF120095E990005DCF
:1000130093F580E50875F008A42465F582E43400BF
:10002300F583E58229F582E43583F583E493FF12B2
:1000330000957F027E001200BB09B908CA050AE5D4
:100043000A70020509C39432E509940040B7050814
:0A005300E508B406ABE4F50880A64A
:030000000200DB20
:0C00DB00787FE4F6D8FD75810A0200036E
:00000001FF
